{
  "contractName": "Canteen",
  "abi": [
    {
      "inputs": [],
      "stateMutability": "nonpayable",
      "type": "constructor"
    },
    {
      "anonymous": false,
      "inputs": [
        {
          "indexed": false,
          "internalType": "string",
          "name": "host",
          "type": "string"
        },
        {
          "indexed": false,
          "internalType": "string",
          "name": "image",
          "type": "string"
        }
      ],
      "name": "MemberImageUpdate",
      "type": "event"
    },
    {
      "anonymous": false,
      "inputs": [
        {
          "indexed": false,
          "internalType": "string",
          "name": "host",
          "type": "string"
        }
      ],
      "name": "MemberJoin",
      "type": "event"
    },
    {
      "anonymous": false,
      "inputs": [
        {
          "indexed": false,
          "internalType": "string",
          "name": "host",
          "type": "string"
        }
      ],
      "name": "MemberLeave",
      "type": "event"
    },
    {
      "anonymous": false,
      "inputs": [
        {
          "indexed": false,
          "internalType": "string",
          "name": "host",
          "type": "string"
        },
        {
          "indexed": false,
          "internalType": "string",
          "name": "image",
          "type": "string"
        },
        {
          "indexed": false,
          "internalType": "string",
          "name": "state",
          "type": "string"
        },
        {
          "indexed": false,
          "internalType": "uint256",
          "name": "timestamp",
          "type": "uint256"
        }
      ],
      "name": "StatusReport",
      "type": "event"
    },
    {
      "inputs": [
        {
          "internalType": "uint256",
          "name": "",
          "type": "uint256"
        }
      ],
      "name": "images",
      "outputs": [
        {
          "internalType": "string",
          "name": "",
          "type": "string"
        }
      ],
      "stateMutability": "view",
      "type": "function"
    },
    {
      "inputs": [
        {
          "internalType": "uint256",
          "name": "",
          "type": "uint256"
        }
      ],
      "name": "members",
      "outputs": [
        {
          "internalType": "string",
          "name": "",
          "type": "string"
        }
      ],
      "stateMutability": "view",
      "type": "function"
    },
    {
      "inputs": [],
      "name": "owner",
      "outputs": [
        {
          "internalType": "address",
          "name": "",
          "type": "address"
        }
      ],
      "stateMutability": "view",
      "type": "function"
    },
    {
      "inputs": [
        {
          "internalType": "string",
          "name": "host",
          "type": "string"
        }
      ],
      "name": "addMember",
      "outputs": [],
      "stateMutability": "nonpayable",
      "type": "function"
    },
    {
      "inputs": [
        {
          "internalType": "string",
          "name": "host",
          "type": "string"
        }
      ],
      "name": "removeMember",
      "outputs": [],
      "stateMutability": "nonpayable",
      "type": "function"
    },
    {
      "inputs": [
        {
          "internalType": "string",
          "name": "name",
          "type": "string"
        },
        {
          "internalType": "uint256",
          "name": "replicas",
          "type": "uint256"
        }
      ],
      "name": "addImage",
      "outputs": [],
      "stateMutability": "nonpayable",
      "type": "function"
    },
    {
      "inputs": [
        {
          "internalType": "string",
          "name": "name",
          "type": "string"
        }
      ],
      "name": "removeImage",
      "outputs": [],
      "stateMutability": "nonpayable",
      "type": "function"
    },
    {
      "inputs": [
        {
          "internalType": "string",
          "name": "name",
          "type": "string"
        },
        {
          "internalType": "uint256",
          "name": "from",
          "type": "uint256"
        },
        {
          "internalType": "uint256",
          "name": "to",
          "type": "uint256"
        }
      ],
      "name": "addPortForImage",
      "outputs": [],
      "stateMutability": "nonpayable",
      "type": "function"
    },
    {
      "inputs": [
        {
          "internalType": "string",
          "name": "name",
          "type": "string"
        }
      ],
      "name": "getPortsForImage",
      "outputs": [
        {
          "internalType": "uint256[2][]",
          "name": "",
          "type": "uint256[2][]"
        }
      ],
      "stateMutability": "view",
      "type": "function"
    },
    {
      "inputs": [
        {
          "internalType": "string",
          "name": "host",
          "type": "string"
        }
      ],
      "name": "getMemberDetails",
      "outputs": [
        {
          "internalType": "string",
          "name": "",
          "type": "string"
        },
        {
          "internalType": "bool",
          "name": "",
          "type": "bool"
        }
      ],
      "stateMutability": "view",
      "type": "function"
    },
    {
      "inputs": [
        {
          "internalType": "string",
          "name": "name",
          "type": "string"
        }
      ],
      "name": "getImageDetails",
      "outputs": [
        {
          "internalType": "uint256",
          "name": "",
          "type": "uint256"
        },
        {
          "internalType": "uint256",
          "name": "",
          "type": "uint256"
        },
        {
          "internalType": "bool",
          "name": "",
          "type": "bool"
        }
      ],
      "stateMutability": "view",
      "type": "function"
    },
    {
      "inputs": [],
      "name": "getMembersCount",
      "outputs": [
        {
          "internalType": "uint256",
          "name": "",
          "type": "uint256"
        }
      ],
      "stateMutability": "view",
      "type": "function"
    },
    {
      "inputs": [],
      "name": "getImages",
      "outputs": [
        {
          "internalType": "string[]",
          "name": "",
          "type": "string[]"
        }
      ],
      "stateMutability": "view",
      "type": "function"
    },
    {
      "inputs": [],
      "name": "getImagesCount",
      "outputs": [
        {
          "internalType": "uint256",
          "name": "",
          "type": "uint256"
        }
      ],
      "stateMutability": "view",
      "type": "function"
    },
    {
      "inputs": [
        {
          "internalType": "string",
          "name": "host",
          "type": "string"
        },
        {
          "internalType": "string",
          "name": "image",
          "type": "string"
        },
        {
          "internalType": "string",
          "name": "state",
          "type": "string"
        }
      ],
      "name": "reportStatus",
      "outputs": [],
      "stateMutability": "nonpayable",
      "type": "function"
    },
    {
      "inputs": [
        {
          "internalType": "string",
          "name": "host",
          "type": "string"
        }
      ],
      "name": "getMemberStatus",
      "outputs": [
        {
          "internalType": "string",
          "name": "",
          "type": "string"
        },
        {
          "internalType": "string",
          "name": "",
          "type": "string"
        },
        {
          "internalType": "uint256",
          "name": "",
          "type": "uint256"
        }
      ],
      "stateMutability": "view",
      "type": "function"
    },
    {
      "inputs": [],
      "name": "getNodeCount",
      "outputs": [
        {
          "internalType": "uint256",
          "name": "",
          "type": "uint256"
        }
      ],
      "stateMutability": "view",
      "type": "function"
    }
  ],
  "bytecode": "0x6080604052620186a0600755348015610016575f80fd5b505f80546001600160a01b0319163317905561213d806100355f395ff3fe608060405234801561000f575f80fd5b5060043610610106575f3560e01c80637be526091161009e5780638e690fc51161006e5780638e690fc51461022e578063918f968714610250578063b33db7b914610263578063f55365a114610276578063fe1d3fd214610289575f80fd5b80637be52609146101d657806384856482146101e95780638742993d146101fc5780638da5cb5b14610204575f80fd5b806339bf397e116100d957806339bf397e1461017b5780633e71b33d146101835780635bac6cd3146101a35780635daf08ca146101b6575f80fd5b806309772f8f1461010a5780631149833414610121578063170a619f146101365780631b73aeff1461014b575b5f80fd5b6002545b6040519081526020015b60405180910390f35b6101296102aa565b6040516101189190611a29565b610149610144366004611b26565b61037e565b005b61015e610159366004611ba8565b61049e565b604080519384526020840192909252151590820152606001610118565b61010e6104f7565b610196610191366004611ba8565b610589565b6040516101189190611be2565b6101496101b1366004611c4a565b61063b565b6101c96101c4366004611c8c565b61081d565b6040516101189190611ca3565b6101496101e4366004611ba8565b6108c3565b6101c96101f7366004611c8c565b610afa565b60055461010e565b5f54610216906001600160a01b031681565b6040516001600160a01b039091168152602001610118565b61024161023c366004611ba8565b610b09565b60405161011893929190611cbc565b61014961025e366004611ba8565b610c75565b610149610271366004611cf1565b610df5565b610149610284366004611ba8565b610e91565b61029c610297366004611ba8565b6110f0565b604051610118929190611d3b565b60606005805480602002602001604051908101604052809291908181526020015f905b82821015610375578382905f5260205f200180546102ea90611d5e565b80601f016020809104026020016040519081016040528092919081815260200182805461031690611d5e565b80156103615780601f1061033857610100808354040283529160200191610361565b820191905f5260205f20905b81548152906001019060200180831161034457829003601f168201915b5050505050815260200190600101906102cd565b50505050905090565b5f836040516020016103909190611d90565b60408051601f1981840301815291815281516020928301205f818152600193849052919091209091015490915060ff166104055760405162461bcd60e51b81526020600482015260116024820152704d656d626572206e6f742061637469766560781b60448201526064015b60405180910390fd5b60408051606081018252848152602080820185905242828401525f8481526003909152919091208151819061043a9082611df8565b506020820151600182019061044f9082611df8565b50604091820151600290910155517fa1d71417eb21ca029a9a581d300312f3c37852be5c70f08d3b03961af73fbb9790610490908690869086904290611eb4565b60405180910390a150505050565b5f805f8060045f866040516020016104b69190611d90565b60408051808303601f190181529181528151602092830120835290820192909252015f2080546001820154600290920154909791965060ff16945092505050565b5f80805b6002548110156105835760015f6002838154811061051b5761051b611efe565b905f5260205f20016040516020016105339190611f12565b60408051601f198184030181529181528151602092830120835290820192909252015f206001015460ff1615610571578161056d81611f98565b9250505b8061057b81611f98565b9150506104fb565b50919050565b606060065f8360405160200161059f9190611d90565b6040516020818303038152906040528051906020012081526020019081526020015f20805480602002602001604051908101604052809291908181526020015f905b82821015610630575f8481526020902060408051808201918290529160028581029091019182845b815481526020019060010190808311610609575050505050815260200190600101906105e1565b505050509050919050565b5f546001600160a01b031633146106645760405162461bcd60e51b81526004016103fc90611fb0565b5f826040516020016106769190611d90565b60408051601f1981840301815291815281516020928301205f818152600490935291206002015490915060ff16156106e75760405162461bcd60e51b8152602060048201526014602482015273496d61676520616c72656164792061637469766560601b60448201526064016103fc565b5f8351116107375760405162461bcd60e51b815260206004820152601a60248201527f496d616765206e616d652063616e6e6f7420626520656d70747900000000000060448201526064016103fc565b5f82116107865760405162461bcd60e51b815260206004820152601f60248201527f5265706c69636173206d7573742062652067726561746572207468616e20300060448201526064016103fc565b600580546001810182555f919091527f036b6384b5eca791c62761152d0c79bb0604c104a5fb6f4eb0703f3154bb3db0016107c18482611df8565b50604080516060810182528381525f602080830182815260018486018181528785526004909352949092209251835590519282019290925590516002909101805460ff1916911515919091179055610818836111d5565b505050565b6002818154811061082c575f80fd5b905f5260205f20015f91509050805461084490611d5e565b80601f016020809104026020016040519081016040528092919081815260200182805461087090611d5e565b80156108bb5780601f10610892576101008083540402835291602001916108bb565b820191905f5260205f20905b81548152906001019060200180831161089e57829003601f168201915b505050505081565b5f546001600160a01b031633146108ec5760405162461bcd60e51b81526004016103fc90611fb0565b5f816040516020016108fe9190611d90565b60408051601f1981840301815291815281516020928301205f818152600490935291206002015490915060ff1661096a5760405162461bcd60e51b815260206004820152601060248201526f496d616765206e6f742061637469766560801b60448201526064016103fc565b5f818152600460205260408120600201805460ff191690555b600254811015610818575f60015f600284815481106109a4576109a4611efe565b905f5260205f20016040516020016109bc9190611f12565b60408051601f198184030181529181528151602092830120835290820192909252015f20600181015490915060ff168015610a1d57506040518390610a05908390602001611f12565b60405160208183030381529060405280519060200120145b15610ae75760408051602081019091525f81528190610a3c9082611df8565b50610ae760028381548110610a5357610a53611efe565b905f5260205f20018054610a6690611d5e565b80601f0160208091040260200160405190810160405280929190818152602001828054610a9290611d5e565b8015610add5780601f10610ab457610100808354040283529160200191610add565b820191905f5260205f20905b815481529060010190602001808311610ac057829003601f168201915b50505050506115b1565b5080610af281611f98565b915050610983565b6005818154811061082c575f80fd5b6060805f8060035f86604051602001610b229190611d90565b6040516020818303038152906040528051906020012081526020019081526020015f209050805f01816001018260020154828054610b5f90611d5e565b80601f0160208091040260200160405190810160405280929190818152602001828054610b8b90611d5e565b8015610bd65780601f10610bad57610100808354040283529160200191610bd6565b820191905f5260205f20905b815481529060010190602001808311610bb957829003601f168201915b50505050509250818054610be990611d5e565b80601f0160208091040260200160405190810160405280929190818152602001828054610c1590611d5e565b8015610c605780601f10610c3757610100808354040283529160200191610c60565b820191905f5260205f20905b815481529060010190602001808311610c4357829003601f168201915b50505050509150935093509350509193909250565b5f546001600160a01b03163314610c9e5760405162461bcd60e51b81526004016103fc90611fb0565b5f81604051602001610cb09190611d90565b60408051601f1981840301815291815281516020928301205f818152600193849052919091209091015490915060ff1615610d255760405162461bcd60e51b81526020600482015260156024820152744d656d62657220616c72656164792061637469766560581b60448201526064016103fc565b600280546001810182555f919091527f405787fa12a823e0f2b7631cc41b3ba8828b3321ca811111fa75cd3aa3bb5ace01610d608382611df8565b50604080516060810182525f818301818152825260016020808401829052858352529190912081518190610d949082611df8565b50602091909101516001909101805460ff19169115159190911790556040517f20aaf1122319f8680c5702fbd0dc409b4ba18bd4c06d2ba76851f48684317a5a90610de0908490611ca3565b60405180910390a1610df1826115b1565b5050565b5f546001600160a01b03163314610e1e5760405162461bcd60e51b81526004016103fc90611fb0565b60065f84604051602001610e329190611d90565b60408051601f1981840301815291815281516020928301208352828201939093529082015f90812083518085019094528584528383018590528054600181018255908252919020610e8b92600292830290910191611950565b50505050565b5f546001600160a01b03163314610eba5760405162461bcd60e51b81526004016103fc90611fb0565b5f81604051602001610ecc9190611d90565b60408051601f1981840301815291815281516020928301205f818152600193849052919091209091015490915060ff16610f3c5760405162461bcd60e51b81526020600482015260116024820152704d656d626572206e6f742061637469766560781b60448201526064016103fc565b5f8181526001602052604081208054610f5490611d5e565b80601f0160208091040260200160405190810160405280929190818152602001828054610f8090611d5e565b8015610fcb5780601f10610fa257610100808354040283529160200191610fcb565b820191905f5260205f20905b815481529060010190602001808311610fae57829003601f168201915b505050505090505f8151111561102b57600160045f83604051602001610ff19190611d90565b6040516020818303038152906040528051906020012081526020019081526020015f206001015f8282546110259190611fe7565b90915550505b604080516060810182525f8183018181528252602080830182905285825260019052919091208151819061105f9082611df8565b50602091820151600191909101805460ff19169115159190911790555f83815260039091526040812090611093828261198e565b6110a0600183015f61198e565b600282015f905550507f816fb948c9b63047dad29d50f39521d74d8931d6bd52593396e25d19dd911446836040516110d89190611ca3565b60405180910390a180511561081857610818816111d5565b60605f8060015f856040516020016111089190611d90565b6040516020818303038152906040528051906020012081526020019081526020015f209050805f01816001015f9054906101000a900460ff1681805461114d90611d5e565b80601f016020809104026020016040519081016040528092919081815260200182805461117990611d5e565b80156111c45780601f1061119b576101008083540402835291602001916111c4565b820191905f5260205f20905b8154815290600101906020018083116111a757829003601f168201915b505050505091509250925050915091565b5f60045f836040516020016111ea9190611d90565b6040516020818303038152906040528051906020012081526020019081526020015f2090505f80805f91505b600254821015611373578354600185015410156113735760015f6002848154811061124357611243611efe565b905f5260205f200160405160200161125b9190611f12565b60408051601f198184030181529181528151602092830120835290820192909252015f20600181015490915060ff1680156112c85750604080515f81526020810180835281519020916112b091849101611f12565b60405160208183030381529060405280519060200120145b1561136157806112d88682611df8565b506001846001015f8282546112ed9190612000565b909155505083546007546113019190612013565b61130b9084612000565b92507fefbb467c527a6700b53f5644cf8e28cb12534569d42e33b58e0e517b37b585366002838154811061134157611341611efe565b905f5260205f200186604051611358929190612032565b60405180910390a15b8161136b81611f98565b925050611216565b5f91505b6002548210156115aa578354600185015410156115aa5760015f600284815481106113a4576113a4611efe565b905f5260205f20016040516020016113bc9190611f12565b60408051601f198184030181529181528151602092830120835290820192909252015f20600181015490915060ff16801561142a5750604080515f815260208101808352815190209161141191849101611f12565b6040516020818303038152906040528051906020012014155b1561159857846040516020016114409190611d90565b60408051601f198184030181529082905280516020918201209161146691849101611f12565b6040516020818303038152906040528051906020012014611598575f60045f835f016040516020016114989190611f12565b6040516020818303038152906040528051906020012081526020019081526020015f2090505f815f015460075483600101546114d491906120cc565b6114de9190612013565b90508481111561159557826114f38882611df8565b506001866001015f8282546115089190612000565b9091555050600182810180545f90611521908490611fe7565b909155505085546007546115359190612013565b61153f9086612000565b94507fefbb467c527a6700b53f5644cf8e28cb12534569d42e33b58e0e517b37b585366002858154811061157557611575611efe565b905f5260205f20018860405161158c929190612032565b60405180910390a15b50505b816115a281611f98565b925050611377565b5050505050565b5f6115ba6117bf565b90505f826040516020016115ce9190611d90565b6040516020818303038152906040528051906020012090505f826040516020016115f89190611d90565b60408051601f1981840301815282825280516020918201205f84529083019182905291519020909150810361162d5750505050565b604080515f80825260208083018085528351902086835260019091529083902090926116599201611f12565b60405160208183030381529060405280519060200120146116bc5760405162461bcd60e51b815260206004820152601b60248201527f4d656d62657220616c72656164792068617320616e20696d616765000000000060448201526064016103fc565b5f81815260046020526040902080546001909101541061171e5760405162461bcd60e51b815260206004820152601f60248201527f496d616765206861732072656163686564207265706c696361206c696d69740060448201526064016103fc565b604080518082018252848152600160208083018290525f868152919052919091208151819061174d9082611df8565b506020918201516001918201805460ff19169115159190911790555f8381526004909252604082208101805491929091611788908490612000565b90915550506040517fefbb467c527a6700b53f5644cf8e28cb12534569d42e33b58e0e517b37b585369061049090869086906120e3565b60408051602081019091525f808252600754606092915b600554811015611948575f600582815481106117f4576117f4611efe565b905f5260205f200160405160200161180c9190611f12565b60408051601f1981840301815291815281516020928301205f8181526004909352912080546001820154929350909110611847575050611936565b600281015460ff1680156118695750805461186290856120cc565b8160010154105b15611933578054600754600183015461188291906120cc565b61188c9190612013565b9350600583815481106118a1576118a1611efe565b905f5260205f200180546118b490611d5e565b80601f01602080910402602001604051908101604052809291908181526020018280546118e090611d5e565b801561192b5780601f106119025761010080835404028352916020019161192b565b820191905f5260205f20905b81548152906001019060200180831161190e57829003601f168201915b505050505094505b50505b8061194081611f98565b9150506117d6565b509092915050565b826002810192821561197e579160200282015b8281111561197e578251825591602001919060010190611963565b5061198a9291506119c8565b5090565b50805461199a90611d5e565b5f825580601f106119a9575050565b601f0160209004905f5260205f20908101906119c591906119c8565b50565b5b8082111561198a575f81556001016119c9565b5f5b838110156119f65781810151838201526020016119de565b50505f910152565b5f8151808452611a158160208601602086016119dc565b601f01601f19169290920160200192915050565b5f602080830181845280855180835260408601915060408160051b87010192508387015f5b82811015611a7c57603f19888603018452611a6a8583516119fe565b94509285019290850190600101611a4e565b5092979650505050505050565b634e487b7160e01b5f52604160045260245ffd5b5f82601f830112611aac575f80fd5b813567ffffffffffffffff80821115611ac757611ac7611a89565b604051601f8301601f19908116603f01168101908282118183101715611aef57611aef611a89565b81604052838152866020858801011115611b07575f80fd5b836020870160208301375f602085830101528094505050505092915050565b5f805f60608486031215611b38575f80fd5b833567ffffffffffffffff80821115611b4f575f80fd5b611b5b87838801611a9d565b94506020860135915080821115611b70575f80fd5b611b7c87838801611a9d565b93506040860135915080821115611b91575f80fd5b50611b9e86828701611a9d565b9150509250925092565b5f60208284031215611bb8575f80fd5b813567ffffffffffffffff811115611bce575f80fd5b611bda84828501611a9d565b949350505050565b602080825282518282018190525f91906040908185019086840185805b83811015611c3c57825185835b6002811015611c2957825182529189019190890190600101611c0c565b5050509385019391860191600101611bff565b509298975050505050505050565b5f8060408385031215611c5b575f80fd5b823567ffffffffffffffff811115611c71575f80fd5b611c7d85828601611a9d565b95602094909401359450505050565b5f60208284031215611c9c575f80fd5b5035919050565b602081525f611cb560208301846119fe565b9392505050565b606081525f611cce60608301866119fe565b8281036020840152611ce081866119fe565b915050826040830152949350505050565b5f805f60608486031215611d03575f80fd5b833567ffffffffffffffff811115611d19575f80fd5b611d2586828701611a9d565b9660208601359650604090950135949350505050565b604081525f611d4d60408301856119fe565b905082151560208301529392505050565b600181811c90821680611d7257607f821691505b60208210810361058357634e487b7160e01b5f52602260045260245ffd5b5f8251611da18184602087016119dc565b9190910192915050565b601f821115610818575f81815260208120601f850160051c81016020861015611dd15750805b601f850160051c820191505b81811015611df057828155600101611ddd565b505050505050565b815167ffffffffffffffff811115611e1257611e12611a89565b611e2681611e208454611d5e565b84611dab565b602080601f831160018114611e59575f8415611e425750858301515b5f19600386901b1c1916600185901b178555611df0565b5f85815260208120601f198616915b82811015611e8757888601518255948401946001909101908401611e68565b5085821015611ea457878501515f19600388901b60f8161c191681555b5050505050600190811b01905550565b608081525f611ec660808301876119fe565b8281036020840152611ed881876119fe565b90508281036040840152611eec81866119fe565b91505082606083015295945050505050565b634e487b7160e01b5f52603260045260245ffd5b5f808354611f1f81611d5e565b60018281168015611f375760018114611f4c57611f78565b60ff1984168752821515830287019450611f78565b875f526020805f205f5b85811015611f6f5781548a820152908401908201611f56565b50505082870194505b50929695505050505050565b634e487b7160e01b5f52601160045260245ffd5b5f60018201611fa957611fa9611f84565b5060010190565b60208082526017908201527f43616c6c6572206973206e6f7420746865206f776e6572000000000000000000604082015260600190565b81810381811115611ffa57611ffa611f84565b92915050565b80820180821115611ffa57611ffa611f84565b5f8261202d57634e487b7160e01b5f52601260045260245ffd5b500490565b604081525f80845461204381611d5e565b806040860152606060018084165f8114612064576001811461207e576120ac565b60ff1985168884015283151560051b8801830195506120ac565b895f526020805f205f5b868110156120a35781548b8201870152908401908201612088565b8a018501975050505b505050505082810360208401526120c381856119fe565b95945050505050565b8082028115828204841417611ffa57611ffa611f84565b604081525f6120f560408301856119fe565b82810360208401526120c381856119fe56fea264697066735822122005a29acc9c14fbb0066a4f1a65d862e991fa9c7c3aa88012e967c5827070aa7964736f6c63430008140033",
  "immutableReferences": {},
  "source": "// SPDX-License-Identifier: MIT\npragma solidity ^0.8.0;\n\ncontract Canteen {\n    struct Member {\n        string imageName;\n        bool active;\n    }\n\n    struct Status {\n        string image;\n        string state; // \"running\", \"stopped\", \"crashed\"\n        uint lastReported;\n    }\n\n    struct Image {\n        uint replicas;\n        uint deployed;\n        bool active;\n    }\n\n    address public owner;\n\n    event MemberJoin(string host);\n    event MemberLeave(string host);\n    event MemberImageUpdate(string host, string image);\n    event StatusReport(string host, string image, string state, uint timestamp);\n\n    mapping(bytes32 => Member) memberDetails;\n    string[] public members;\n\n    mapping(bytes32 => Status) memberStatus;\n    mapping(bytes32 => Image) imageDetails;\n    string[] public images;\n    mapping (bytes32 => uint[2][]) exposedPortsForImages;\n\n    uint MULT = 100000;\n\n    modifier restricted() {\n        require(msg.sender == owner, \"Caller is not the owner\");\n        _;\n    }\n\n    constructor() {\n        owner = msg.sender;\n    }\n\n    function addMember(string memory host) public restricted {\n        bytes32 hashedHost = keccak256(abi.encodePacked(host));\n        require(!memberDetails[hashedHost].active, \"Member already active\");\n\n        members.push(host);\n        memberDetails[hashedHost] = Member(\"\", true);\n\n        emit MemberJoin(host);\n        setImageForMember(host);\n    }\n\n    function removeMember(string memory host) public restricted {\n        bytes32 hashedHost = keccak256(abi.encodePacked(host));\n        require(memberDetails[hashedHost].active, \"Member not active\");\n\n        string memory affectedImage = memberDetails[hashedHost].imageName;\n\n        if (bytes(affectedImage).length > 0) {\n            imageDetails[keccak256(abi.encodePacked(affectedImage))].deployed -= 1;\n        }\n        memberDetails[hashedHost] = Member(\"\", false);\n        delete memberStatus[hashedHost];\n\n        emit MemberLeave(host);\n\n        if (bytes(affectedImage).length > 0) {\n            rebalanceWithUnfortunateImage(affectedImage);\n        }\n    }\n\n    function addImage(string memory name, uint replicas) public restricted {\n        bytes32 hashedName = keccak256(abi.encodePacked(name));\n        require(!imageDetails[hashedName].active, \"Image already active\");\n        require(bytes(name).length > 0, \"Image name cannot be empty\");\n        require(replicas > 0, \"Replicas must be greater than 0\");\n\n        images.push(name);\n        imageDetails[hashedName] = Image(replicas, 0, true);\n\n        // Need to rebalance\n        // Eg. (A, 4) is one image. We have 4 members. Now we add (B, 4)\n        // We now have A A A A -> We would need A B A B\n        rebalanceWithUnfortunateImage(name);\n    }\n\n    function removeImage(string memory name) public restricted {\n        bytes32 hashedName = keccak256(abi.encodePacked(name));\n        require(imageDetails[hashedName].active, \"Image not active\");\n\n        imageDetails[hashedName].active = false;\n\n        // Reassigns all the affected hosts to new images\n        for (uint i = 0; i < members.length; i++) {\n            Member storage member = memberDetails[keccak256(abi.encodePacked(members[i]))];\n            if (member.active && keccak256(abi.encodePacked(member.imageName)) == hashedName) {\n                member.imageName = \"\";\n                setImageForMember(members[i]);\n            }\n        }\n    }\n\n    function addPortForImage(string memory name, uint from, uint to) public restricted {\n        exposedPortsForImages[keccak256(abi.encodePacked(name))].push([from, to]);\n    }\n\n    function getPortsForImage(string memory name) public view returns (uint[2][] memory) {\n        return exposedPortsForImages[keccak256(abi.encodePacked(name))];\n    }\n\n    function getMemberDetails(string memory host) public view returns (string memory, bool) {\n        Member storage details = memberDetails[keccak256(abi.encodePacked(host))];\n        return (details.imageName, details.active);\n    }\n\n    function getImageDetails(string memory name) public view returns (uint, uint, bool) {\n        Image storage details = imageDetails[keccak256(abi.encodePacked(name))];\n        return (details.replicas, details.deployed, details.active);\n    }\n\n    function rebalanceWithUnfortunateImage(string memory newImageName) private {\n        Image storage newImage = imageDetails[keccak256(abi.encodePacked(newImageName))];\n        uint currentRatio = 0;\n        uint i;\n        Member storage member;\n\n        for (i = 0; i < members.length; i++) {\n            if (newImage.deployed >= newImage.replicas)\n                break;\n\n            member = memberDetails[keccak256(abi.encodePacked(members[i]))];\n            // Looking for empty hosts and filling them up\n            if (member.active && keccak256(abi.encodePacked(member.imageName)) == keccak256(abi.encodePacked(\"\"))) {\n                member.imageName = newImageName;\n                newImage.deployed += 1;\n                currentRatio += (MULT / newImage.replicas);\n                emit MemberImageUpdate(members[i], newImageName);\n            }\n        }\n\n        for (i = 0; i < members.length; i++) {\n            if (newImage.deployed >= newImage.replicas)\n                break;\n\n            member = memberDetails[keccak256(abi.encodePacked(members[i]))];\n            // Now we are processing those hosts which already have images on them\n            if (member.active && keccak256(abi.encodePacked(member.imageName)) != keccak256(abi.encodePacked(\"\"))) {\n                // Only check if the machine has some other host running\n                if (keccak256(abi.encodePacked(member.imageName)) != keccak256(abi.encodePacked(newImageName))) {\n                    Image storage image = imageDetails[keccak256(abi.encodePacked(member.imageName))];\n                    uint ratio = (image.deployed * MULT) / image.replicas;\n                    // if (ratio < currentRatio + (MULT / newImage.replicas)) {\n                    if (ratio > currentRatio) {\n                        member.imageName = newImageName;\n                        newImage.deployed += 1;\n                        image.deployed -= 1;\n                        currentRatio += (MULT / newImage.replicas);\n                        emit MemberImageUpdate(members[i], newImageName);\n                    }\n                }\n            }\n        }\n    }\n\n    function setImageForMember(string memory host) private {\n        string memory image = getNextImageToUse();\n        bytes32 hashedHost = keccak256(abi.encodePacked(host));\n        bytes32 hashedImage = keccak256(abi.encodePacked(image));\n        if (hashedImage == keccak256(abi.encodePacked(\"\"))) {\n            return;\n        }\n\n        // Host currently has no image, and image hasn't reached its limit yet.\n        require(keccak256(abi.encodePacked(memberDetails[hashedHost].imageName)) == keccak256(abi.encodePacked(\"\")), \"Member already has an image\");\n        require(imageDetails[hashedImage].deployed < imageDetails[hashedImage].replicas, \"Image has reached replica limit\");\n\n        memberDetails[hashedHost] = Member(image, true);\n        imageDetails[hashedImage].deployed += 1;\n        emit MemberImageUpdate(host, image);\n    }\n\n    // Selects image with lowest usage, scales equal usage of all replicas,\n    // with respect to the ratio of the replicas required.\n    function getNextImageToUse() private view returns (string memory) {\n        string memory bestImage = \"\";\n        uint lowestUsage = MULT;\n\n        for (uint i = 0; i < images.length; i++) {\n            bytes32 hash = keccak256(abi.encodePacked(images[i]));\n            Image storage image = imageDetails[hash];\n\n            if (image.deployed >= image.replicas)\n                continue;\n\n            // deployed / usage < lowestUsage -> this has lower usage\n            if (image.active && image.deployed < lowestUsage * image.replicas) {\n                lowestUsage = (image.deployed * MULT) / image.replicas;\n                bestImage = images[i];\n            }\n        }\n\n        return bestImage;\n    }\n\n    function getMembersCount() public view returns (uint) {\n        return members.length;\n    }\n\n    function getImages() public view returns (string[] memory) {\n        return images;\n    }\n\n    function getImagesCount() public view returns (uint) {\n        return images.length;\n    }\n\n    function reportStatus(string memory host, string memory image, string memory state) public {\n        bytes32 hashedHost = keccak256(abi.encodePacked(host));\n        require(memberDetails[hashedHost].active, \"Member not active\");\n\n        memberStatus[hashedHost] = Status(image, state, block.timestamp);\n        emit StatusReport(host, image, state, block.timestamp);\n    }\n\n    function getMemberStatus(string memory host) public view returns (string memory, string memory, uint) {\n        Status storage status = memberStatus[keccak256(abi.encodePacked(host))];\n        return (status.image, status.state, status.lastReported);\n    }\n\n    function getNodeCount() public view returns (uint) {\n        uint count = 0;\n        for (uint i = 0; i < members.length; i++) {\n            if (memberDetails[keccak256(abi.encodePacked(members[i]))].active) {\n                count++;\n            }\n        }\n        return count;\n    }\n}",
  "sourcePath": "C:\\Users\\HP\\Desktop\\VeilSTack\\Veil-Stack\\canteen\\contracts\\Canteen.sol",
  "compiler": {
    "name": "solc",
    "version": "0.8.20+commit.a1b79de6.Emscripten.clang"
  },
  "schemaVersion": "3.4.16",
  "updatedAt": "2026-07-22T20:08:25.981Z",
  "devdoc": {
    "kind": "dev",
    "methods": {},
    "version": 1
  },
  "userdoc": {
    "kind": "user",
    "methods": {},
    "version": 1
  }
}